:020000040800F2
:1000000000500020410C0008DD0B0008DF0B000849
:10001000E10B0008E30B0008E50B000800000000FE
:10002000000000000000000000000000E70B0008D6
:10003000E90B000800000000EB0B0008ED0B0008C6
:10004000890C0008890C0008890C0008890C00083C
:10005000890C0008890C0008890C0008890C00082C
:10006000890C0008890C0008890C0008890C00081C
:10007000890C0008890C0008890C0008890C00080C
:10008000890C0008890C0008890C0008890C0008FC
:10009000890C0008890C0008890C0008890C0008EC
:1000A000890C0008890C0008890C0008890C0008DC
:1000B000890C0008890C0008890C0008890C0008CC
:1000C000890C0008890C0008890C0008890C0008BC
:1000D000890C0008890C0008890C0008890C0008AC
:1000E000890C0008890C0008890C00080000000039
:1000F0000000000000000000000000000000000000
:0C01000000000000000000005FF808F1A3
:10010C0010B5054C237833B9044B13B10448AFF345
:10011C0000800123237010BD0C00002000000000A3
:10012C00E40C000808B5034B1BB103490348AFF3BB
:10013C00008008BD0000000010000020E40C000846
:10014C0010B504460E4B18784FF47A73B3FBF0F3EA
:10015C000C4A1068B0FBF3F000F094F868B90F2C5F
:10016C0001D901200AE0002221464FF0FF3000F0B7
:10017C0055F8034B5C60002000E0012010BD00BF6F
:10018C00000000200800002008B5074A136843F05F
:10019C0010031360032000F02FF80020FFF7D0FFAE
:1001AC0000F0F4FC002008BD00200240034A116856
:1001BC00034B1B780B441360704700BF28000020D2
:1001CC0000000020014B1868704700BF2800002079
:1001DC0038B50446FFF7F6FF0546B4F1FF3F02D0F1
:1001EC00044B1B781C44FFF7EDFF401BA042FAD3D5
:1001FC0038BD00BF00000020074AD36823F4E06339
:10020C001B041B0C000200F4E060184340F0BF60BC
:10021C0040F40030D060704700ED00E030B4174B74
:10022C00DB68C3F30223C3F10704042C28BF0424A6
:10023C001D1D062D18D9033B4FF0FF3505FA04F4AC
:10024C0021EA0401994005FA03F322EA0303194356
:10025C0000280BDB0901C9B200F1604000F56140D8
:10026C0080F8001330BC70470023E5E700F00F0066
:10027C000901C9B2024B1954F4E700BF00ED00E0CC
:10028C0014ED00E00138B0F1807F0AD2064B5860C3
:10029C00064AF02182F823100020986007221A6089
:1002AC0070470120704700BF10E000E000ED00E057
:1002BC00F0B482B000263546A1E0002C59D0012CB8
:1002CC0000D1CE68FF2B68D88446FF2B68D8AC00D1
:1002DC00DCF800200F27A74022EA070206FA04F4F4
:1002EC002243CCF800204A6812F0805F00F0868030
:1002FC005E4A946944F001049461926902F001022F
:10030C000192019AAC08A71C594A52F8272005F013
:10031C000307BF004FF00F0C0CFA07FC22EA0C0C81
:10032C00544A904242D002F5806290427FD002F54E
:10033C00806290427DD002F58062904234D00422DB
:10034C0035E04D4FBC4214D00BD94C4FBC4210D0B1
:10035C0007F58037BC420CD0A7F58017BC42B1D151
:10036C0007E0A7F58017BC4203D007F58037BC42E5
:10037C00A8D18C687CB1012C08D042610826A1E779
:10038C00CE6808369EE7CE680C369BE702610826DD
:10039C0098E7002696E7042694E700F1040C94E70E
:1003AC00A5F10804A40093E7032200E00022BA4060
:1003BC0042EA0C0202342E4F47F824204A6812F409
:1003CC00803F38D02E4C22681A4322604A6812F4BF
:1003DC00003F36D02A4C62681A4362604A6812F4B5
:1003EC00801F34D0264CA2681A43A2604A6812F4CB
:1003FC00001F32D0224CE2681343E36001350F2D0D
:10040C0031D80122AA400B6813409A42F6D14C68AD
:10041C00122CB8D095D8022CB2D07FF64EAF032C4C
:10042C00B7D0112C7FF44EAFCE6804364AE70122C8
:10043C00BDE70222BBE7124C226822EA03022260CB
:10044C00C4E70F4C626822EA03026260C6E70C4CF8
:10045C00A26822EA0302A260C8E7094CE26822EA19
:10046C000303E360CAE702B0F0BC7047001002401F
:10047C000000014000080140000021100000311074
:10048C000004014012B90904016170470161704711
:10049C0082B0084B1B68084AA2FB03235B0A00FBD3
:1004AC0003F0019000BF019B5A1E0192002BF9D161
:1004BC0002B0704708000020D34D621070B582B0B6
:1004CC000446036813F0010F2CD0AB4B5B6803F0B0
:1004DC000C03042B1DD0A84B5B6803F00C03082BFA
:1004EC0012D06368B3F5803F41D0002B55D103F196
:1004FC00804303F504331A6822F480321A601A68B8
:10050C0022F480221A6037E09B4B5B6813F4803F27
:10051C00E7D0994B1B6813F4003F03D06368002BA2
:10052C0000F0AE81236813F0020F76D0924B5B681B
:10053C0013F00C0F5FD0904B5B6803F00C03082B8F
:10054C0054D02369002B00F08A808C4B01221A6056
:10055C00FFF738FE0546884B1B6813F0020F75D168
:10056C00FFF730FE401B0228F5D903208BE1824AAD
:10057C00136843F480331360636843B3FFF722FEC0
:10058C0005467D4B1B6813F4003FCBD1FFF71AFED9
:10059C00401B6428F5D9032075E1B3F5A02F09D0D1
:1005AC00754B1A6822F480321A601A6822F4802281
:1005BC001A60E1E703F18043A3F53C331A6842F477
:1005CC0080221A601A6842F480321A60D4E7FFF76E
:1005DC00F9FD0546684B1B6813F4003FA2D0FFF7EA
:1005EC00F1FD401B6428F5D903204CE1624B5B689C
:1005FC0013F4803FA5D1604B1B6813F0020F04D09D
:10060C002369012B01D001203DE15B4A136823F0E3
:10061C00F803616943EAC1031360236813F0080F00
:10062C0032D0A369002B5BD0554B01221A60FFF727
:10063C00C9FD0546504B5B6A13F0020F21D1FFF741
:10064C00C1FD401B0228F5D903201CE14A4A13685E
:10065C0023F0F803616943EAC1031360DDE7474BFC
:10066C0000221A60FFF7AEFD0546434B1B6813F0E2
:10067C00020FD2D0FFF7A6FD401B0228F5D90320AC
:10068C0001E10120FFF704FF236813F0040F00F0D1
:10069C009780394BDB6913F0805F33D1364BDA69C5
:1006AC0042F08052DA61DB6903F080530193019BC5
:1006BC000125344B1B6813F4807F25D0E368012B94
:1006CC0036D0002B4CD103F1804303F504331A6A66
:1006DC0022F001021A621A6A22F004021A622CE059
:1006EC00274B00221A60FFF76DFD0546224B5B6A13
:1006FC0013F0020FC8D0FFF765FD401B0228F5D997
:10070C000320C0E00025D4E71E4A136843F480732D
:10071C001360FFF757FD06461A4B1B6813F4807FD6
:10072C00CCD1FFF74FFD801B6428F5D90320AAE03C
:10073C00114A136A43F001031362E36873B3FFF7C2
:10074C0041FD06460C4B1B6A13F0020F37D1FFF725
:10075C0039FD801B41F288339842F3D9032092E093
:10076C00052B11D0044B1A6A22F001021A621A6A84
:10077C0022F004021A62E0E700100240000042423C
:10078C008004424200700040414B1A6A42F004025D
:10079C001A621A6A42F001021A62CEE7FFF712FDE2
:1007AC0006463B4B1B6A13F0020F08D0FFF70AFDFD
:1007BC00801B41F288339842F3D9032063E0E5B9FA
:1007CC00E369002B5ED0324A526802F00C02082A10
:1007DC005BD0022B17D02F4B00221A60FFF7F2FCD4
:1007EC0004462B4B1B6813F0007F47D0FFF7EAFC45
:1007FC00001B0228F5D9032045E0254AD36923F0D4
:10080C008053D361DCE7234B00221A60FFF7DAFC3C
:10081C0005461F4B1B6813F0007F06D0FFF7D2FC78
:10082C00401B0228F5D903202DE0236AB3F5803F45
:10083C001AD017494B6823F47413226A606A024376
:10084C0013434B60134B01221A60FFF7BBFC0446A9
:10085C000F4B1B6813F0007F0ED1FFF7B3FC001B8E
:10086C000228F5D903200EE0094A536823F400331B
:10087C00A1680B435360DCE7002004E0002002E099
:10088C00012000E0002002B070BD0120FBE700BF9A
:10089C00001002406000424210B487B0164C94E83D
:1008AC000F000DF1180C0CE90F00238AADF8043081
:1008BC00124B5B6803F00C02082A1AD1C3F3834273
:1008CC00624412F8102C13F4803F05D10C4800FB45
:1008DC0002F007B010BC7047084B5B68C3F3404391
:1008EC00634413F8143C074800FB02F0B0FBF3F030
:1008FC00EFE70448EDE700BFFC0C000800100240D5
:10090C0000093D0000127A00624B1B6803F00703DC
:10091C008B420CD25F4A136823F007030B4313601E
:10092C00136803F007038B4201D00120704770B5A8
:10093C00036813F0020F17D013F0040F04D0564ABB
:10094C00536843F4E0635360036813F0080F04D05A
:10095C00514A536843F4605353604F4A536823F031
:10096C00F0038468234353600D460446036813F078
:10097C00010F52D04368012B23D0022B28D0464ABA
:10098C00126812F0020F00F0828043494A6822F08C
:10099C00030213434B60FFF715FC06466368012BFB
:1009AC001DD0022B2AD03C4B5B6813F00C0F34D0BB
:1009BC00FFF708FC801B41F288339842F3D90320DF
:1009CC0064E0354A126812F4003FDED101205DE08C
:1009DC00314A126812F0007FD7D1012056E02E4B1D
:1009EC005B6803F00C03042B17D0FFF7EBFB801BA9
:1009FC0041F288339842F2D9032047E0264B5B68DA
:100A0C0003F00C03082B08D0FFF7DCFB801B41F232
:100A1C0088339842F2D9032038E01E4B1B6803F050
:100A2C000703AB420CD91B4A136823F007032B4373
:100A3C001360136803F00703AB4201D0012025E0DB
:100A4C00236813F0040F06D0134A536823F4E063B1
:100A5C00E1680B435360236813F0080F07D00E4A6C
:100A6C00536823F46053216943EAC1035360FFF7D1
:100A7C0013FF094B5B68C3F30313084AD35CD840DC
:100A8C00074B18600020FFF75BFB002070BD0120B6
:100A9C00FCE700BF0020024000100240100D0008CF
:100AAC000800002030B587B000240294039404940D
:100ABC000594144B9A6942F010029A619A6902F0FB
:100ACC0010020092009A9A6942F004029A619B69A2
:100ADC0003F004030193019B0B4D22464FF400518C
:100AEC002846FFF7CFFC4FF40053029301230393E6
:100AFC0004940223059302A92846FFF7D9FB07B0FB
:100B0C0030BD00BF001002400010014010B590B085
:100B1C002422002107A800F0D7F8002401940294A5
:100B2C000394049405940223069301230A9310233F
:100B3C000B9306A8FFF7C2FC0F23019302940394B6
:100B4C0004940594214601A8FFF7DEFE10B010BDF9
:100B5C0008B5FFF719FBFFF7D9FFFFF7A3FF0A4C06
:100B6C0001224FF400512046FFF78CFC4FF47A70B1
:100B7C00FFF72EFB00224FF400512046FFF782FCBA
:100B8C006420FFF725FBEAE70010014082B00E4B12
:100B9C009A6942F001029A619A6902F0010200928C
:100BAC00009ADA6942F08052DA61DB6903F0805313
:100BBC000193019B054A536823F0E06343F00073F3
:100BCC00536002B0704700BF0010024000000140AB
:100BDC007047FEE7FEE7FEE7FEE770477047704799
:100BEC0008B5FFF7E3FA08BD0F4B1A6842F0010293
:100BFC001A6059680D4A0A405A601A6822F08472C9
:100C0C0022F480321A601A6822F480221A605A6820
:100C1C0022F4FE025A604FF41F029A60044B4FF00C
:100C2C0000629A60704700BF001002400000FFF89D
:100C3C0000ED00E0002103E00B4B5B584350043106
:100C4C000A480B4B42189A42F6D30A4A02E0002398
:100C5C0042F8043B084B9A42F9D3FFF7C5FF00F06A
:100C6C000FF8FFF775FF7047300D000800000020EB
:100C7C000C0000200C0000202C000020FEE70000DF
:100C8C0070B500250C4E0D4CA41BA410A54209D127
:100C9C0000F022F800250A4E0A4CA41BA410A54211
:100CAC0005D170BD56F8253098470135EEE756F85A
:100CBC00253098470135F2E7280D0008280D00086B
:100CCC00280D00082C0D000803460244934200D165
:100CDC00704703F8011BF9E7F8B500BFF8BC08BC76
:100CEC009E467047F8B500BFF8BC08BC9E467047DE
:100CFC0002030405060708090A0B0C0D0E0F101051
:100D0C0001020000000000000000000001020304CA
:0C0D1C00060708090000000001020304A3
:040D2800310100088D
:040D2C000D010008AD
:0C0D3000010000001000000000A24A04B6
:0400000508000C41A2
:00000001FF
